{
  "address": "0x5Ae2d36f1A6E23C7776F740C712F10a440e0Ce52",
  "abi": [
    {
      "inputs": [
        {
          "internalType": "address",
          "name": "_feeTo",
          "type": "address"
        }
      ],
      "stateMutability": "nonpayable",
      "type": "constructor"
    },
    {
      "inputs": [
        {
          "internalType": "address",
          "name": "",
          "type": "address"
        }
      ],
      "name": "FeeToIsZeroAddress",
      "type": "error"
    },
    {
      "inputs": [
        {
          "internalType": "string",
          "name": "",
          "type": "string"
        }
      ],
      "name": "FileError",
      "type": "error"
    },
    {
      "inputs": [
        {
          "internalType": "bytes32",
          "name": "",
          "type": "bytes32"
        }
      ],
      "name": "FileNotExist",
      "type": "error"
    },
    {
      "inputs": [],
      "name": "OnlyInContextOfUpload",
      "type": "error"
    },
    {
      "anonymous": false,
      "inputs": [
        {
          "indexed": true,
          "internalType": "address",
          "name": "owner",
          "type": "address"
        },
        {
          "indexed": true,
          "internalType": "address",
          "name": "spender",
          "type": "address"
        },
        {
          "indexed": false,
          "internalType": "uint256",
          "name": "value",
          "type": "uint256"
        }
      ],
      "name": "Approval",
      "type": "event"
    },
    {
      "anonymous": false,
      "inputs": [
        {
          "indexed": false,
          "internalType": "bytes32",
          "name": "",
          "type": "bytes32"
        },
        {
          "indexed": false,
          "internalType": "address",
          "name": "",
          "type": "address"
        }
      ],
      "name": "FileAdded",
      "type": "event"
    },
    {
      "anonymous": false,
      "inputs": [
        {
          "indexed": false,
          "internalType": "bytes32",
          "name": "",
          "type": "bytes32"
        },
        {
          "indexed": false,
          "internalType": "address",
          "name": "",
          "type": "address"
        }
      ],
      "name": "FileRemoved",
      "type": "event"
    },
    {
      "anonymous": false,
      "inputs": [
        {
          "indexed": true,
          "internalType": "address",
          "name": "previousOwner",
          "type": "address"
        },
        {
          "indexed": true,
          "internalType": "address",
          "name": "newOwner",
          "type": "address"
        }
      ],
      "name": "OwnershipTransferred",
      "type": "event"
    },
    {
      "anonymous": false,
      "inputs": [
        {
          "indexed": true,
          "internalType": "address",
          "name": "from",
          "type": "address"
        },
        {
          "indexed": true,
          "internalType": "address",
          "name": "to",
          "type": "address"
        },
        {
          "indexed": false,
          "internalType": "uint256",
          "name": "value",
          "type": "uint256"
        }
      ],
      "name": "Transfer",
      "type": "event"
    },
    {
      "inputs": [
        {
          "internalType": "address",
          "name": "owner",
          "type": "address"
        },
        {
          "internalType": "address",
          "name": "spender",
          "type": "address"
        }
      ],
      "name": "allowance",
      "outputs": [
        {
          "internalType": "uint256",
          "name": "",
          "type": "uint256"
        }
      ],
      "stateMutability": "view",
      "type": "function"
    },
    {
      "inputs": [
        {
          "internalType": "address",
          "name": "spender",
          "type": "address"
        },
        {
          "internalType": "uint256",
          "name": "amount",
          "type": "uint256"
        }
      ],
      "name": "approve",
      "outputs": [
        {
          "internalType": "bool",
          "name": "",
          "type": "bool"
        }
      ],
      "stateMutability": "nonpayable",
      "type": "function"
    },
    {
      "inputs": [
        {
          "internalType": "address",
          "name": "who",
          "type": "address"
        }
      ],
      "name": "approveUploader",
      "outputs": [],
      "stateMutability": "nonpayable",
      "type": "function"
    },
    {
      "inputs": [
        {
          "internalType": "address",
          "name": "account",
          "type": "address"
        }
      ],
      "name": "balanceOf",
      "outputs": [
        {
          "internalType": "uint256",
          "name": "",
          "type": "uint256"
        }
      ],
      "stateMutability": "view",
      "type": "function"
    },
    {
      "inputs": [],
      "name": "decimals",
      "outputs": [
        {
          "internalType": "uint8",
          "name": "",
          "type": "uint8"
        }
      ],
      "stateMutability": "view",
      "type": "function"
    },
    {
      "inputs": [
        {
          "internalType": "address",
          "name": "spender",
          "type": "address"
        },
        {
          "internalType": "uint256",
          "name": "subtractedValue",
          "type": "uint256"
        }
      ],
      "name": "decreaseAllowance",
      "outputs": [
        {
          "internalType": "bool",
          "name": "",
          "type": "bool"
        }
      ],
      "stateMutability": "nonpayable",
      "type": "function"
    },
    {
      "inputs": [
        {
          "internalType": "bytes32",
          "name": "fileHash",
          "type": "bytes32"
        }
      ],
      "name": "download",
      "outputs": [
        {
          "internalType": "bool",
          "name": "",
          "type": "bool"
        }
      ],
      "stateMutability": "nonpayable",
      "type": "function"
    },
    {
      "inputs": [],
      "name": "getFiles",
      "outputs": [
        {
          "components": [
            {
              "internalType": "uint256",
              "name": "dateUploaded",
              "type": "uint256"
            },
            {
              "internalType": "uint256",
              "name": "downloadCount",
              "type": "uint256"
            },
            {
              "internalType": "address",
              "name": "uploader",
              "type": "address"
            }
          ],
          "internalType": "struct IDRythm.Data[]",
          "name": "_return",
          "type": "tuple[]"
        }
      ],
      "stateMutability": "view",
      "type": "function"
    },
    {
      "inputs": [
        {
          "internalType": "address",
          "name": "spender",
          "type": "address"
        },
        {
          "internalType": "uint256",
          "name": "addedValue",
          "type": "uint256"
        }
      ],
      "name": "increaseAllowance",
      "outputs": [
        {
          "internalType": "bool",
          "name": "",
          "type": "bool"
        }
      ],
      "stateMutability": "nonpayable",
      "type": "function"
    },
    {
      "inputs": [],
      "name": "isContextOf",
      "outputs": [
        {
          "internalType": "bool",
          "name": "",
          "type": "bool"
        }
      ],
      "stateMutability": "view",
      "type": "function"
    },
    {
      "inputs": [],
      "name": "name",
      "outputs": [
        {
          "internalType": "string",
          "name": "",
          "type": "string"
        }
      ],
      "stateMutability": "view",
      "type": "function"
    },
    {
      "inputs": [],
      "name": "owner",
      "outputs": [
        {
          "internalType": "address",
          "name": "",
          "type": "address"
        }
      ],
      "stateMutability": "view",
      "type": "function"
    },
    {
      "inputs": [
        {
          "internalType": "bytes32",
          "name": "fileHash",
          "type": "bytes32"
        }
      ],
      "name": "removeFile",
      "outputs": [
        {
          "internalType": "bool",
          "name": "_return",
          "type": "bool"
        }
      ],
      "stateMutability": "nonpayable",
      "type": "function"
    },
    {
      "inputs": [
        {
          "internalType": "address",
          "name": "who",
          "type": "address"
        }
      ],
      "name": "removeUploader",
      "outputs": [],
      "stateMutability": "nonpayable",
      "type": "function"
    },
    {
      "inputs": [],
      "name": "renounceOwnership",
      "outputs": [],
      "stateMutability": "nonpayable",
      "type": "function"
    },
    {
      "inputs": [
        {
          "internalType": "uint256",
          "name": "removalFee",
          "type": "uint256"
        },
        {
          "internalType": "uint256",
          "name": "uploadFee",
          "type": "uint256"
        }
      ],
      "name": "setFee",
      "outputs": [],
      "stateMutability": "nonpayable",
      "type": "function"
    },
    {
      "inputs": [],
      "name": "symbol",
      "outputs": [
        {
          "internalType": "string",
          "name": "",
          "type": "string"
        }
      ],
      "stateMutability": "view",
      "type": "function"
    },
    {
      "inputs": [],
      "name": "totalSupply",
      "outputs": [
        {
          "internalType": "uint256",
          "name": "",
          "type": "uint256"
        }
      ],
      "stateMutability": "view",
      "type": "function"
    },
    {
      "inputs": [
        {
          "internalType": "address",
          "name": "to",
          "type": "address"
        },
        {
          "internalType": "uint256",
          "name": "amount",
          "type": "uint256"
        }
      ],
      "name": "transfer",
      "outputs": [
        {
          "internalType": "bool",
          "name": "",
          "type": "bool"
        }
      ],
      "stateMutability": "nonpayable",
      "type": "function"
    },
    {
      "inputs": [
        {
          "internalType": "address",
          "name": "from",
          "type": "address"
        },
        {
          "internalType": "address",
          "name": "to",
          "type": "address"
        },
        {
          "internalType": "uint256",
          "name": "amount",
          "type": "uint256"
        }
      ],
      "name": "transferFrom",
      "outputs": [
        {
          "internalType": "bool",
          "name": "",
          "type": "bool"
        }
      ],
      "stateMutability": "nonpayable",
      "type": "function"
    },
    {
      "inputs": [
        {
          "internalType": "address",
          "name": "newOwner",
          "type": "address"
        }
      ],
      "name": "transferOwnership",
      "outputs": [],
      "stateMutability": "nonpayable",
      "type": "function"
    },
    {
      "inputs": [
        {
          "internalType": "bytes32",
          "name": "fileHash",
          "type": "bytes32"
        }
      ],
      "name": "upload",
      "outputs": [
        {
          "internalType": "bool",
          "name": "",
          "type": "bool"
        }
      ],
      "stateMutability": "nonpayable",
      "type": "function"
    },
    {
      "stateMutability": "payable",
      "type": "receive"
    }
  ],
  "transactionHash": "0x00b1502e365dadedc630e17bd136ba1e557dc6c08581cff5538d9d7badb1c270",
  "args": [
    "0xA7B2387bF4C259e188751B46859fcA7E2043FEFD"
  ],
  "numDeployments": 1,
  "solcInputHash": "6e6b1214181539cdec23e58a790b1823",
  "bytecode": "0x60806040523480156200001157600080fd5b5060405162001d0438038062001d0483398101604081905262000034916200031a565b6040518060400160405280600981526020017f52594d20546f6b656e00000000000000000000000000000000000000000000008152506040518060400160405280600381526020017f52594d0000000000000000000000000000000000000000000000000000000000815250620000b9620001a9640100000000026401000000009004565b6a295be96e640669720000006003620000d3858262000422565b506004620000e2848262000422565b506005805460ff19169055620001028282640100000000620001ad810204565b505050506200013262000123620001a9640100000000026401000000009004565b640100000000620002bb810204565b600160a060020a03811662000183576040517f9c9d17bc000000000000000000000000000000000000000000000000000000008152600160a060020a03821660048201526024015b60405180910390fd5b600b8054600160a060020a031916600160a060020a039290921691909117905562000536565b3390565b600160a060020a0382166200021f576040517f08c379a000000000000000000000000000000000000000000000000000000000815260206004820152601f60248201527f45524332303a206d696e7420746f20746865207a65726f20616464726573730060448201526064016200017a565b620002366000838364010000000062000315810204565b80600260008282546200024a9190620004f5565b9091555050600160a060020a038216600081815260208181526040808320600101805486019055518481527fddf252ad1be2c89b69c2b068fc378daa952ba7f163c4a11628f55a4df523b3ef910160405180910390a3620002b76000838364010000000062000315810204565b5050565b60058054600160a060020a0383811661010081810261010060a860020a031985161790945560405193909204169182907f8be0079c531659141344cd1fd0a4f28419497f9722a3daafe3b4186f6b6457e090600090a35050565b505050565b6000602082840312156200032d57600080fd5b8151600160a060020a03811681146200034557600080fd5b9392505050565b7f4e487b7100000000000000000000000000000000000000000000000000000000600052604160045260246000fd5b6002810460018216806200039057607f821691505b602082108103620003ca577f4e487b7100000000000000000000000000000000000000000000000000000000600052602260045260246000fd5b50919050565b601f82111562000315576000818152602081206020601f86010481016020861015620003f95750805b6020601f860104820191505b818110156200041a5782815560010162000405565b505050505050565b815167ffffffffffffffff8111156200043f576200043f6200034c565b62000457816200045084546200037b565b84620003d0565b602080601f831160018114620004935760008415620004765750858301515b60028086026008870290910a60001904198216178655506200041a565b600085815260208120601f198616915b82811015620004c457888601518255948401946001909101908401620004a3565b5085821015620004e557878501516008601f88160260020a60001904191681555b5050505050600202600101905550565b8082018082111562000530577f4e487b7100000000000000000000000000000000000000000000000000000000600052601160045260246000fd5b92915050565b6117be80620005466000396000f3fe608060405260043610610156576000357c01000000000000000000000000000000000000000000000000000000009004806367971080116100c8578063a457c2d71161008c578063a457c2d7146103a3578063a4746af6146103c3578063a9059cbb146103e3578063dd62ed3e14610403578063f2fde38b14610423578063fa0438a91461044357600080fd5b806367971080146102ea57806370a082311461030a578063715018a6146103435780638da5cb5b1461035857806395d89b411461038e57600080fd5b806323b872dd1161011a57806323b872dd1461022c5780632da96d731461024c578063313ce5671461026e578063395093511461028a57806339a88307146102aa57806352f7c988146102ca57600080fd5b806306fdde0314610178578063095ea7b3146101a35780630bef429b146101d357806318160ddd146101f35780631dc3a0121461021257600080fd5b3661017357600b5461017190600160a060020a031634610463565b005b600080fd5b34801561018457600080fd5b5061018d61058d565b60405161019a91906114e9565b60405180910390f35b3480156101af57600080fd5b506101c36101be366004611553565b61061f565b604051901515815260200161019a565b3480156101df57600080fd5b506101c36101ee36600461157d565b610639565b3480156101ff57600080fd5b506002545b60405190815260200161019a565b34801561021e57600080fd5b506005546101c39060ff1681565b34801561023857600080fd5b506101c3610247366004611596565b610791565b34801561025857600080fd5b506102616107b5565b60405161019a91906115d2565b34801561027a57600080fd5b506040516012815260200161019a565b34801561029657600080fd5b506101c36102a5366004611553565b61083a565b3480156102b657600080fd5b506101716102c5366004611634565b61085c565b3480156102d657600080fd5b506101716102e5366004611656565b6108e2565b3480156102f657600080fd5b506101c361030536600461157d565b6108f5565b34801561031657600080fd5b50610204610325366004611634565b600160a060020a031660009081526020819052604090206001015490565b34801561034f57600080fd5b50610171610b3f565b34801561036457600080fd5b506005546101009004600160a060020a0316604051600160a060020a03909116815260200161019a565b34801561039a57600080fd5b5061018d610b53565b3480156103af57600080fd5b506101c36103be366004611553565b610b62565b3480156103cf57600080fd5b506101c36103de36600461157d565b610bf8565b3480156103ef57600080fd5b506101c36103fe366004611553565b610ccc565b34801561040f57600080fd5b5061020461041e366004611678565b610cda565b34801561042f57600080fd5b5061017161043e366004611634565b610d05565b34801561044f57600080fd5b5061017161045e366004611634565b610d98565b30318111156104bc5760405160e560020a62461bcd02815260206004820152601d60248201527f416464726573733a20696e73756666696369656e742062616c616e636500000060448201526064015b60405180910390fd5b600082600160a060020a03168260405160006040518083038185875af1925050503d8060008114610509576040519150601f19603f3d011682016040523d82523d6000602084013e61050e565b606091505b50509050806105885760405160e560020a62461bcd02815260206004820152603a60248201527f416464726573733a20756e61626c6520746f2073656e642076616c75652c207260448201527f6563697069656e74206d6179206861766520726576657274656400000000000060648201526084016104b3565b505050565b60606003805461059c906116ab565b80601f01602080910402602001604051908101604052809291908181526020018280546105c8906116ab565b80156106155780601f106105ea57610100808354040283529160200191610615565b820191906000526020600020905b8154815290600101906020018083116105f857829003601f168201915b5050505050905090565b60003361062d818585610e12565b60019150505b92915050565b6000818152600a602052604081205460ff166106b1576040517ff89316dd00000000000000000000000000000000000000000000000000000000815260206004820152600e60248201527f46696c65206e6f7420657869737400000000000000000000000000000000000060448201526064016104b3565b6106bd33600754610f70565b506000818152600a60205260409020805460019091015460ff90911690600990815481106106ed576106ed6116fe565b60009182526020808320600390920290910182815560018082018490556002909101805473ffffffffffffffffffffffffffffffffffffffff19169055848352600a90915260408220805460ff1916815501557f7be12496ae22d3d9a9e65382c3ecfe9066f06c542a3a22dd9c9c2deb159de645826107693390565b60408051928352600160a060020a0390911660208301520160405180910390a1506001919050565b60003361079f858285610f7e565b6107aa858585610ffb565b506001949350505050565b60606006600301805480602002602001604051908101604052809291908181526020016000905b8282101561083157600084815260209081902060408051606081018252600386029092018054835260018082015484860152600290910154600160a060020a03169183019190915290835290920191016107dc565b50505050905090565b60003361062d81858561084d8383610cda565b610857919061175c565b610e12565b6005805460ff191660011790556108716111fb565b61087a8161125e565b516108ca5760405160e560020a62461bcd02815260206004820152600e60248201527f416c726561647952656d6f76656400000000000000000000000000000000000060448201526064016104b3565b6108d56000826112a8565b506005805460ff19169055565b6108ea6111fb565b600791909155600655565b6000818152600a602081815260408084205481518083019092529281527f46696c65206578697374000000000000000000000000000000000000000000009181019190915260ff909116159061094a3361125e565b5161099a5760405160e560020a62461bcd02815260206004820152601560248201527f557365724e6565645072696f72417070726f76616c000000000000000000000060448201526064016104b3565b816109d357806040517ff89316dd0000000000000000000000000000000000000000000000000000000081526004016104b391906114e9565b6005805460ff191660011790556109f26109ea3390565b600654610f70565b6009805460408051606081018252428152600060208083018281523384860181815260018089018a5598855294517f6e1540171b6c0c960b71a7020d9f60077f6af931a8bbf590da0223dacf75c7af600389029081019190915591517f6e1540171b6c0c960b71a7020d9f60077f6af931a8bbf590da0223dacf75c7b083015593517f6e1540171b6c0c960b71a7020d9f60077f6af931a8bbf590da0223dacf75c7b1909101805473ffffffffffffffffffffffffffffffffffffffff1916600160a060020a03909216919091179055835180850185528681528082018681528b8452600a8352928590209051815460ff191690151517815591519190950155815188815293840152805191927f83b278ee008fb23dd64632b98e20e959d6cbfe6133838a9bdcd6c13bd5646fab929081900390910190a150506005805460ff1916905550600192915050565b610b476111fb565b610b51600061130c565b565b60606004805461059c906116ab565b60003381610b708286610cda565b905083811015610beb5760405160e560020a62461bcd02815260206004820152602560248201527f45524332303a2064656372656173656420616c6c6f77616e63652062656c6f7760448201527f207a65726f00000000000000000000000000000000000000000000000000000060648201526084016104b3565b6107aa8286868403610e12565b6000818152600a602052604081205460ff16610c70576040517ff89316dd00000000000000000000000000000000000000000000000000000000815260206004820152600e60248201527f46696c65206e6f7420657869737400000000000000000000000000000000000060448201526064016104b3565b610c7c33600854610f70565b6000828152600a602052604090206001015460099081548110610ca157610ca16116fe565b600091825260208220600160039092020101805491610cbf8361176f565b9091555060019392505050565b60003361062d818585610ffb565b600160a060020a03918216600090815260016020908152604080832093909416825291909152205490565b610d0d6111fb565b600160a060020a038116610d8c5760405160e560020a62461bcd02815260206004820152602660248201527f4f776e61626c653a206e6577206f776e657220697320746865207a65726f206160448201527f646472657373000000000000000000000000000000000000000000000000000060648201526084016104b3565b610d958161130c565b50565b6005805460ff19166001179055610dad6111fb565b610db68161125e565b5115610e075760405160e560020a62461bcd02815260206004820152600f60248201527f416c7265616479417070726f766564000000000000000000000000000000000060448201526064016104b3565b6108d56001826112a8565b600160a060020a038316610e905760405160e560020a62461bcd028152602060048201526024808201527f45524332303a20617070726f76652066726f6d20746865207a65726f2061646460448201527f726573730000000000000000000000000000000000000000000000000000000060648201526084016104b3565b600160a060020a038216610f0f5760405160e560020a62461bcd02815260206004820152602260248201527f45524332303a20617070726f766520746f20746865207a65726f20616464726560448201527f737300000000000000000000000000000000000000000000000000000000000060648201526084016104b3565b600160a060020a0383811660008181526001602090815260408083209487168084529482529182902085905590518481527f8c5be1e5ebec7d5bd14f71427d1e84f3dd0314c0f7b2291e5b200ac8c7c3b925910160405180910390a3505050565b610f7a8282611373565b5050565b6000610f8a8484610cda565b90506000198114610ff55781811015610fe85760405160e560020a62461bcd02815260206004820152601d60248201527f45524332303a20696e73756666696369656e7420616c6c6f77616e636500000060448201526064016104b3565b610ff58484848403610e12565b50505050565b600160a060020a03831661107a5760405160e560020a62461bcd02815260206004820152602560248201527f45524332303a207472616e736665722066726f6d20746865207a65726f20616460448201527f647265737300000000000000000000000000000000000000000000000000000060648201526084016104b3565b600160a060020a0382166110f95760405160e560020a62461bcd02815260206004820152602360248201527f45524332303a207472616e7366657220746f20746865207a65726f206164647260448201527f657373000000000000000000000000000000000000000000000000000000000060648201526084016104b3565b600160a060020a0383166000908152602081905260409020600101548181101561118e5760405160e560020a62461bcd02815260206004820152602660248201527f45524332303a207472616e7366657220616d6f756e742065786365656473206260448201527f616c616e6365000000000000000000000000000000000000000000000000000060648201526084016104b3565b600160a060020a0384811660008181526020818152604080832087870360019182015594881680845292819020909401805487019055925185815290927fddf252ad1be2c89b69c2b068fc378daa952ba7f163c4a11628f55a4df523b3ef910160405180910390a3610ff5565b600554600160a060020a03610100909104163314610b515760405160e560020a62461bcd02815260206004820181905260248201527f4f776e61626c653a2063616c6c6572206973206e6f7420746865206f776e657260448201526064016104b3565b604080518082019091526000808252602082015250600160a060020a0316600090815260208181526040918290208251808401909352805460ff1615158352600101549082015290565b60055460ff166112e4576040517fafbbbf1400000000000000000000000000000000000000000000000000000000815260040160405180910390fd5b600160a060020a03166000908152602081905260409020805460ff1916911515919091179055565b60058054600160a060020a0383811661010081810274ffffffffffffffffffffffffffffffffffffffff001985161790945560405193909204169182907f8be0079c531659141344cd1fd0a4f28419497f9722a3daafe3b4186f6b6457e090600090a35050565b600160a060020a0382166113f25760405160e560020a62461bcd02815260206004820152602160248201527f45524332303a206275726e2066726f6d20746865207a65726f2061646472657360448201527f730000000000000000000000000000000000000000000000000000000000000060648201526084016104b3565b600160a060020a038216600090815260208190526040902060010154818110156114875760405160e560020a62461bcd02815260206004820152602260248201527f45524332303a206275726e20616d6f756e7420657863656564732062616c616e60448201527f636500000000000000000000000000000000000000000000000000000000000060648201526084016104b3565b600160a060020a038316600081815260208181526040808320868603600190910155600280548790039055518581529192917fddf252ad1be2c89b69c2b068fc378daa952ba7f163c4a11628f55a4df523b3ef910160405180910390a3505050565b600060208083528351808285015260005b81811015611516578581018301518582016040015282016114fa565b506000604082860101526040601f19601f8301168501019250505092915050565b8035600160a060020a038116811461154e57600080fd5b919050565b6000806040838503121561156657600080fd5b61156f83611537565b946020939093013593505050565b60006020828403121561158f57600080fd5b5035919050565b6000806000606084860312156115ab57600080fd5b6115b484611537565b92506115c260208501611537565b9150604084013590509250925092565b602080825282518282018190526000919060409081850190868401855b82811015611627578151805185528681015187860152850151600160a060020a031685850152606090930192908501906001016115ef565b5091979650505050505050565b60006020828403121561164657600080fd5b61164f82611537565b9392505050565b6000806040838503121561166957600080fd5b50508035926020909101359150565b6000806040838503121561168b57600080fd5b61169483611537565b91506116a260208401611537565b90509250929050565b6002810460018216806116bf57607f821691505b6020821081036116f8577f4e487b7100000000000000000000000000000000000000000000000000000000600052602260045260246000fd5b50919050565b7f4e487b7100000000000000000000000000000000000000000000000000000000600052603260045260246000fd5b7f4e487b7100000000000000000000000000000000000000000000000000000000600052601160045260246000fd5b808201808211156106335761063361172d565b6000600182016117815761178161172d565b506001019056fea26469706673582212206431cad875533891f018c2f7557f9bdfbb8198364f8f23e14a30453264e38c3f64736f6c63430008110033",
  "devdoc": {
    "details": "Extension of {ERC20} that allows token holders to destroy both their own tokens and those that they have an allowance for, in a way that can be recognized off-chain (via event analysis).",
    "kind": "dev",
    "methods": {
      "allowance(address,address)": {
        "details": "See {IERC20-allowance}."
      },
      "approve(address,uint256)": {
        "details": "See {IERC20-approve}. NOTE: If `amount` is the maximum `uint256`, the allowance is not updated on `transferFrom`. This is semantically equivalent to an infinite approval. Requirements: - `spender` cannot be the zero address."
      },
      "balanceOf(address)": {
        "details": "See {IERC20-balanceOf}."
      },
      "decimals()": {
        "details": "Returns the number of decimals used to get its user representation. For example, if `decimals` equals `2`, a balance of `505` tokens should be displayed to a user as `5.05` (`505 / 10 ** 2`). Tokens usually opt for a value of 18, imitating the relationship between Ether and Wei. This is the value {ERC20} uses, unless this function is overridden; NOTE: This information is only used for _display_ purposes: it in no way affects any of the arithmetic of the contract, including {IERC20-balanceOf} and {IERC20-transfer}."
      },
      "decreaseAllowance(address,uint256)": {
        "details": "Atomically decreases the allowance granted to `spender` by the caller. This is an alternative to {approve} that can be used as a mitigation for problems described in {IERC20-approve}. Emits an {Approval} event indicating the updated allowance. Requirements: - `spender` cannot be the zero address. - `spender` must have allowance for the caller of at least `subtractedValue`."
      },
      "download(bytes32)": {
        "params": {
          "fileHash": ": Hash of the file to download."
        }
      },
      "increaseAllowance(address,uint256)": {
        "details": "Atomically increases the allowance granted to `spender` by the caller. This is an alternative to {approve} that can be used as a mitigation for problems described in {IERC20-approve}. Emits an {Approval} event indicating the updated allowance. Requirements: - `spender` cannot be the zero address."
      },
      "name()": {
        "details": "Returns the name of the token."
      },
      "owner()": {
        "details": "Returns the address of the current owner."
      },
      "removeFile(bytes32)": {
        "details": "Removes file with fileHash",
        "params": {
          "fileHash": ": Hash of the file to remove. "
        }
      },
      "renounceOwnership()": {
        "details": "Leaves the contract without owner. It will not be possible to call `onlyOwner` functions anymore. Can only be called by the current owner. NOTE: Renouncing ownership will leave the contract without an owner, thereby removing any functionality that is only available to the owner."
      },
      "setFee(uint256,uint256)": {
        "details": "Resets fees "
      },
      "symbol()": {
        "details": "Returns the symbol of the token, usually a shorter version of the name."
      },
      "totalSupply()": {
        "details": "See {IERC20-totalSupply}."
      },
      "transfer(address,uint256)": {
        "details": "See {IERC20-transfer}. Requirements: - `to` cannot be the zero address. - the caller must have a balance of at least `amount`."
      },
      "transferFrom(address,address,uint256)": {
        "details": "See {IERC20-transferFrom}. Emits an {Approval} event indicating the updated allowance. This is not required by the EIP. See the note at the beginning of {ERC20}. NOTE: Does not update the allowance if the current allowance is the maximum `uint256`. Requirements: - `from` and `to` cannot be the zero address. - `from` must have a balance of at least `amount`. - the caller must have allowance for ``from``'s tokens of at least `amount`."
      },
      "transferOwnership(address)": {
        "details": "Transfers ownership of the contract to a new account (`newOwner`). Can only be called by the current owner."
      },
      "upload(bytes32)": {
        "details": "Adds new file with fileHash",
        "params": {
          "fileHash": ": Hash of the file to add. "
        }
      }
    },
    "version": 1
  },
  "userdoc": {
    "kind": "user",
    "methods": {
      "download(bytes32)": {
        "notice": "Download file"
      }
    },
    "version": 1
  },
  "storageLayout": {
    "storage": [
      {
        "astId": 587,
        "contract": "contracts/DRythm.sol:DRythm",
        "label": "_balances",
        "offset": 0,
        "slot": "0",
        "type": "t_mapping(t_address,t_struct(Profile)1658_storage)"
      },
      {
        "astId": 593,
        "contract": "contracts/DRythm.sol:DRythm",
        "label": "_allowances",
        "offset": 0,
        "slot": "1",
        "type": "t_mapping(t_address,t_mapping(t_address,t_uint256))"
      },
      {
        "astId": 595,
        "contract": "contracts/DRythm.sol:DRythm",
        "label": "_totalSupply",
        "offset": 0,
        "slot": "2",
        "type": "t_uint256"
      },
      {
        "astId": 597,
        "contract": "contracts/DRythm.sol:DRythm",
        "label": "_name",
        "offset": 0,
        "slot": "3",
        "type": "t_string_storage"
      },
      {
        "astId": 599,
        "contract": "contracts/DRythm.sol:DRythm",
        "label": "_symbol",
        "offset": 0,
        "slot": "4",
        "type": "t_string_storage"
      },
      {
        "astId": 601,
        "contract": "contracts/DRythm.sol:DRythm",
        "label": "isContextOf",
        "offset": 0,
        "slot": "5",
        "type": "t_bool"
      },
      {
        "astId": 7,
        "contract": "contracts/DRythm.sol:DRythm",
        "label": "_owner",
        "offset": 1,
        "slot": "5",
        "type": "t_address"
      },
      {
        "astId": 1244,
        "contract": "contracts/DRythm.sol:DRythm",
        "label": "pData",
        "offset": 0,
        "slot": "6",
        "type": "t_struct(UploadData)1641_storage"
      },
      {
        "astId": 1246,
        "contract": "contracts/DRythm.sol:DRythm",
        "label": "feeTo",
        "offset": 0,
        "slot": "11",
        "type": "t_address"
      }
    ],
    "types": {
      "t_address": {
        "encoding": "inplace",
        "label": "address",
        "numberOfBytes": "20"
      },
      "t_array(t_struct(Data)1653_storage)dyn_storage": {
        "base": "t_struct(Data)1653_storage",
        "encoding": "dynamic_array",
        "label": "struct IDRythm.Data[]",
        "numberOfBytes": "32"
      },
      "t_bool": {
        "encoding": "inplace",
        "label": "bool",
        "numberOfBytes": "1"
      },
      "t_bytes32": {
        "encoding": "inplace",
        "label": "bytes32",
        "numberOfBytes": "32"
      },
      "t_mapping(t_address,t_mapping(t_address,t_uint256))": {
        "encoding": "mapping",
        "key": "t_address",
        "label": "mapping(address => mapping(address => uint256))",
        "numberOfBytes": "32",
        "value": "t_mapping(t_address,t_uint256)"
      },
      "t_mapping(t_address,t_struct(Profile)1658_storage)": {
        "encoding": "mapping",
        "key": "t_address",
        "label": "mapping(address => struct IDRythm.Profile)",
        "numberOfBytes": "32",
        "value": "t_struct(Profile)1658_storage"
      },
      "t_mapping(t_address,t_uint256)": {
        "encoding": "mapping",
        "key": "t_address",
        "label": "mapping(address => uint256)",
        "numberOfBytes": "32",
        "value": "t_uint256"
      },
      "t_mapping(t_bytes32,t_struct(FileStatus)1646_storage)": {
        "encoding": "mapping",
        "key": "t_bytes32",
        "label": "mapping(bytes32 => struct IDRythm.FileStatus)",
        "numberOfBytes": "32",
        "value": "t_struct(FileStatus)1646_storage"
      },
      "t_string_storage": {
        "encoding": "bytes",
        "label": "string",
        "numberOfBytes": "32"
      },
      "t_struct(Data)1653_storage": {
        "encoding": "inplace",
        "label": "struct IDRythm.Data",
        "members": [
          {
            "astId": 1648,
            "contract": "contracts/DRythm.sol:DRythm",
            "label": "dateUploaded",
            "offset": 0,
            "slot": "0",
            "type": "t_uint256"
          },
          {
            "astId": 1650,
            "contract": "contracts/DRythm.sol:DRythm",
            "label": "downloadCount",
            "offset": 0,
            "slot": "1",
            "type": "t_uint256"
          },
          {
            "astId": 1652,
            "contract": "contracts/DRythm.sol:DRythm",
            "label": "uploader",
            "offset": 0,
            "slot": "2",
            "type": "t_address"
          }
        ],
        "numberOfBytes": "96"
      },
      "t_struct(FileStatus)1646_storage": {
        "encoding": "inplace",
        "label": "struct IDRythm.FileStatus",
        "members": [
          {
            "astId": 1643,
            "contract": "contracts/DRythm.sol:DRythm",
            "label": "isUploaded",
            "offset": 0,
            "slot": "0",
            "type": "t_bool"
          },
          {
            "astId": 1645,
            "contract": "contracts/DRythm.sol:DRythm",
            "label": "index",
            "offset": 0,
            "slot": "1",
            "type": "t_uint256"
          }
        ],
        "numberOfBytes": "64"
      },
      "t_struct(Profile)1658_storage": {
        "encoding": "inplace",
        "label": "struct IDRythm.Profile",
        "members": [
          {
            "astId": 1655,
            "contract": "contracts/DRythm.sol:DRythm",
            "label": "isUploader",
            "offset": 0,
            "slot": "0",
            "type": "t_bool"
          },
          {
            "astId": 1657,
            "contract": "contracts/DRythm.sol:DRythm",
            "label": "balance",
            "offset": 0,
            "slot": "1",
            "type": "t_uint256"
          }
        ],
        "numberOfBytes": "64"
      },
      "t_struct(UploadData)1641_storage": {
        "encoding": "inplace",
        "label": "struct IDRythm.UploadData",
        "members": [
          {
            "astId": 1627,
            "contract": "contracts/DRythm.sol:DRythm",
            "label": "uploadFee",
            "offset": 0,
            "slot": "0",
            "type": "t_uint256"
          },
          {
            "astId": 1629,
            "contract": "contracts/DRythm.sol:DRythm",
            "label": "removalFee",
            "offset": 0,
            "slot": "1",
            "type": "t_uint256"
          },
          {
            "astId": 1631,
            "contract": "contracts/DRythm.sol:DRythm",
            "label": "downloadFee",
            "offset": 0,
            "slot": "2",
            "type": "t_uint256"
          },
          {
            "astId": 1635,
            "contract": "contracts/DRythm.sol:DRythm",
            "label": "files",
            "offset": 0,
            "slot": "3",
            "type": "t_array(t_struct(Data)1653_storage)dyn_storage"
          },
          {
            "astId": 1640,
            "contract": "contracts/DRythm.sol:DRythm",
            "label": "fileIndexes",
            "offset": 0,
            "slot": "4",
            "type": "t_mapping(t_bytes32,t_struct(FileStatus)1646_storage)"
          }
        ],
        "numberOfBytes": "160"
      },
      "t_uint256": {
        "encoding": "inplace",
        "label": "uint256",
        "numberOfBytes": "32"
      }
    }
  }
}